:030000000209D022
:0C09D000787FE4F6D8FD75810C02080069
:1008A900202054414E4B20454D50545920002020C2
:1008B9004D4F544F5220204F4E005741544552201E
:1008C90051554152544552005741544552204841CF
:1008D9004C4600574154455220332F342046554C3D
:1008E9004C0020202054414E4B202046554C4C2092
:1008F90020002020204D4F544F5220204F464620A3
:020909002000CC
:07093B001209C27F0A7E00D1
:10094200E4FDFCC3ED9FEE6480F8EC6480985015E2
:10095200E4FBFA0BBB00010ABA03F8BBE8F50DBDD4
:0509620000010C80DE25
:01096700226D
:0E09B400D290C2918FA0D29212093EC292221E
:0E09C2008FA0C290C291D29212093EC2922220
:06090B008B088A09890A2D
:10091100E4F50BF50CAB08AA09A90A850C82850B35
:1009210083120968FF3395E0FE4F600D1209B4058B
:090931000CE50C70E0050B80DC04
:01093A00229A
:100995007F387E0012093B7F0C12093B7F0112094B
:0F09A500C27F067E001209C27F807E000209C257
:10080000C2B3C2B2C2B1C2B020B02520B12220B260
:100810001F20B31C1209957BFF7A0879A912090BD6
:100820001209957BFF7A0879B712090BD2B480D8E8
:1008300030B01720B11420B21120B30E1209957BED
:10084000FF7A0879C312090B80E630B01730B11473
:1008500020B21120B30E1209957BFF7A0879D112CC
:10086000090B80E630B01730B11430B21120B30E4E
:100870001209957BFF7A0879DC12090B80E630B00B
:100880008730B18430B28120B30302080812099581
:100890007BFF7A0879EB12090B1209957BFF7A0826
:0908A00079FB12090BC2B480D5EA
:10096800BB010CE58229F582E5833AF583E0225044
:1009780006E92582F8E622BBFE06E92582F8E2228E
:0D098800E58229F582E5833AF583E49322A8
:00000001FF
